{
  "abi": [
    {
      "inputs": [
        {
          "internalType": "uint256",
          "name": "_entryCost",
          "type": "uint256"
        }
      ],
      "stateMutability": "nonpayable",
      "type": "constructor"
    },
    {
      "anonymous": false,
      "inputs": [
        {
          "indexed": false,
          "internalType": "uint256",
          "name": "amount",
          "type": "uint256"
        }
      ],
      "name": "BalanceWithdrawn",
      "type": "event"
    },
    {
      "anonymous": false,
      "inputs": [
        {
          "indexed": false,
          "internalType": "uint256",
          "name": "newCost",
          "type": "uint256"
        }
      ],
      "name": "EntryCostChanged",
      "type": "event"
    },
    {
      "anonymous": false,
      "inputs": [
        {
          "indexed": false,
          "internalType": "address",
          "name": "nftAddress",
          "type": "address"
        },
        {
          "indexed": false,
          "internalType": "uint256",
          "name": "nftId",
          "type": "uint256"
        }
      ],
      "name": "NFTPrizeSet",
      "type": "event"
    },
    {
      "anonymous": false,
      "inputs": [
        {
          "indexed": false,
          "internalType": "address",
          "name": "player",
          "type": "address"
        }
      ],
      "name": "NewEntry",
      "type": "event"
    },
    {
      "anonymous": false,
      "inputs": [],
      "name": "RaffleEnded",
      "type": "event"
    },
    {
      "anonymous": false,
      "inputs": [],
      "name": "RaffleStarted",
      "type": "event"
    },
    {
      "anonymous": false,
      "inputs": [
        {
          "indexed": false,
          "internalType": "address",
          "name": "winner",
          "type": "address"
        }
      ],
      "name": "WinnerSelected",
      "type": "event"
    },
    {
      "inputs": [
        {
          "internalType": "uint256",
          "name": "_numberOfEntries",
          "type": "uint256"
        }
      ],
      "name": "buyEntry",
      "outputs": [],
      "stateMutability": "payable",
      "type": "function"
    },
    {
      "inputs": [
        {
          "internalType": "uint256",
          "name": "_newCost",
          "type": "uint256"
        }
      ],
      "name": "changeEntryCost",
      "outputs": [],
      "stateMutability": "nonpayable",
      "type": "function"
    },
    {
      "inputs": [],
      "name": "endRaffle",
      "outputs": [],
      "stateMutability": "nonpayable",
      "type": "function"
    },
    {
      "inputs": [],
      "name": "entryCost",
      "outputs": [
        {
          "internalType": "uint256",
          "name": "",
          "type": "uint256"
        }
      ],
      "stateMutability": "view",
      "type": "function"
    },
    {
      "inputs": [
        {
          "internalType": "address",
          "name": "",
          "type": "address"
        }
      ],
      "name": "entryCount",
      "outputs": [
        {
          "internalType": "uint256",
          "name": "",
          "type": "uint256"
        }
      ],
      "stateMutability": "view",
      "type": "function"
    },
    {
      "inputs": [],
      "name": "getBalance",
      "outputs": [
        {
          "internalType": "uint256",
          "name": "",
          "type": "uint256"
        }
      ],
      "stateMutability": "view",
      "type": "function"
    },
    {
      "inputs": [],
      "name": "getPlayers",
      "outputs": [
        {
          "internalType": "address[]",
          "name": "",
          "type": "address[]"
        }
      ],
      "stateMutability": "view",
      "type": "function"
    },
    {
      "inputs": [
        {
          "internalType": "address",
          "name": "_player",
          "type": "address"
        }
      ],
      "name": "isPlayer",
      "outputs": [
        {
          "internalType": "bool",
          "name": "",
          "type": "bool"
        }
      ],
      "stateMutability": "view",
      "type": "function"
    },
    {
      "inputs": [],
      "name": "nftAddress",
      "outputs": [
        {
          "internalType": "address",
          "name": "",
          "type": "address"
        }
      ],
      "stateMutability": "view",
      "type": "function"
    },
    {
      "inputs": [],
      "name": "nftId",
      "outputs": [
        {
          "internalType": "uint256",
          "name": "",
          "type": "uint256"
        }
      ],
      "stateMutability": "view",
      "type": "function"
    },
    {
      "inputs": [],
      "name": "owner",
      "outputs": [
        {
          "internalType": "address",
          "name": "",
          "type": "address"
        }
      ],
      "stateMutability": "view",
      "type": "function"
    },
    {
      "inputs": [
        {
          "internalType": "uint256",
          "name": "",
          "type": "uint256"
        }
      ],
      "name": "players",
      "outputs": [
        {
          "internalType": "address",
          "name": "",
          "type": "address"
        }
      ],
      "stateMutability": "view",
      "type": "function"
    },
    {
      "inputs": [],
      "name": "raffleStatus",
      "outputs": [
        {
          "internalType": "bool",
          "name": "",
          "type": "bool"
        }
      ],
      "stateMutability": "view",
      "type": "function"
    },
    {
      "inputs": [],
      "name": "resetsContract",
      "outputs": [],
      "stateMutability": "nonpayable",
      "type": "function"
    },
    {
      "inputs": [],
      "name": "selectWinner",
      "outputs": [],
      "stateMutability": "nonpayable",
      "type": "function"
    },
    {
      "inputs": [
        {
          "internalType": "address",
          "name": "_nftContract",
          "type": "address"
        },
        {
          "internalType": "uint256",
          "name": "_tokenID",
          "type": "uint256"
        }
      ],
      "name": "startRaffle",
      "outputs": [],
      "stateMutability": "nonpayable",
      "type": "function"
    },
    {
      "inputs": [],
      "name": "totalEntries",
      "outputs": [
        {
          "internalType": "uint256",
          "name": "",
          "type": "uint256"
        }
      ],
      "stateMutability": "view",
      "type": "function"
    },
    {
      "inputs": [],
      "name": "withdrawBalance",
      "outputs": [],
      "stateMutability": "nonpayable",
      "type": "function"
    }
  ],
  "bytecode": {
    "object": "0x608060405234801561001057600080fd5b5060405161106038038061106083398101604081905261002f91610059565b600080546001600160a01b031916331781556005919091556004805460ff19169055600855610072565b60006020828403121561006b57600080fd5b5051919050565b610fdf806100816000396000f3fe6080604052600436106101095760003560e01c80637fef036e11610095578063c6bc518211610064578063c6bc5182146102b2578063ccfa213e146102c8578063d4ac1ef6146102e2578063ee095c0e146102f7578063f71d96cb1461030c57600080fd5b80637fef036e146102445780638b5b9ccc1461025a5780638da5cb5b1461027c578063ae42ced61461029c57600080fd5b806333a99e04116100dc57806333a99e04146101a257806341dd1ef8146101b75780635bf8633a146101e45780635fd8c7101461021c578063767d59af1461023157600080fd5b8063038546511461010e5780630513ec681461013057806309c95e101461015057806312065fe014610185575b600080fd5b34801561011a57600080fd5b5061012e610129366004610dfa565b61032c565b005b34801561013c57600080fd5b5061012e61014b366004610e26565b610583565b34801561015c57600080fd5b5061017061016b366004610e3f565b610635565b60405190151581526020015b60405180910390f35b34801561019157600080fd5b50475b60405190815260200161017c565b3480156101ae57600080fd5b5061012e61069e565b3480156101c357600080fd5b506101946101d2366004610e3f565b60016020526000908152604090205481565b3480156101f057600080fd5b50600654610204906001600160a01b031681565b6040516001600160a01b03909116815260200161017c565b34801561022857600080fd5b5061012e610907565b61012e61023f366004610e26565b6109e6565b34801561025057600080fd5b5061019460085481565b34801561026657600080fd5b5061026f610ba9565b60405161017c9190610e63565b34801561028857600080fd5b50600054610204906001600160a01b031681565b3480156102a857600080fd5b5061019460055481565b3480156102be57600080fd5b5061019460075481565b3480156102d457600080fd5b506004546101709060ff1681565b3480156102ee57600080fd5b5061012e610c0b565b34801561030357600080fd5b5061012e610c80565b34801561031857600080fd5b50610204610327366004610e26565b610d29565b6000546001600160a01b0316331461035f5760405162461bcd60e51b815260040161035690610eb0565b60405180910390fd5b60045460ff16156103b25760405162461bcd60e51b815260206004820152601960248201527f526166666c6520697320616c72656164792073746172746564000000000000006044820152606401610356565b6006546001600160a01b0316156104215760405162461bcd60e51b815260206004820152602d60248201527f4e465420707269786520616c7265616479207365742c20506c6561736520736560448201526c3632b1ba1030903bb4b73732b960991b6064820152608401610356565b6000546040516331a9108f60e11b8152600481018390526001600160a01b0391821691841690636352211e90602401602060405180830381865afa15801561046d573d6000803e3d6000fd5b505050506040513d601f19601f820116820180604052508101906104919190610ef5565b6001600160a01b0316146104e75760405162461bcd60e51b815260206004820152601a60248201527f4f776e657220646f6573206e6f74206f776e20746865206e66740000000000006044820152606401610356565b600680546001600160a01b0319166001600160a01b03841617905560078190556004805460ff191660011790556040517f093fa4dfbb74d3608ba227f645b7ff895fb60f8d2d990df81a7c200c325c88d090600090a1604080516001600160a01b0384168152602081018390527f2ac20e8e7908ca4f6e905c54ac2fe40c31c687b210db2a2718e3e54ccfe95711910160405180910390a15050565b6000546001600160a01b031633146105ad5760405162461bcd60e51b815260040161035690610eb0565b60045460ff16156105fa5760405162461bcd60e51b8152602060048201526017602482015276526166666c65206973207374696c6c2072756e6e696e6760481b6044820152606401610356565b60058190556040518181527eb880966eaaba04d39b129a92f6780ac322d8cd79a2ee908d3c3bf7fb2de777906020015b60405180910390a150565b6000805b60025481101561069557826001600160a01b03166002828154811061066057610660610f12565b6000918252602090912001546001600160a01b0316036106835750600192915050565b8061068d81610f3e565b915050610639565b50600092915050565b6000546001600160a01b031633146106c85760405162461bcd60e51b815260040161035690610eb0565b60045460ff16156107155760405162461bcd60e51b8152602060048201526017602482015276526166666c65206973207374696c6c2072756e6e696e6760481b6044820152606401610356565b60035461075b5760405162461bcd60e51b81526020600482015260146024820152734e6f20706c617965727320696e20726166666c6560601b6044820152606401610356565b6006546001600160a01b03166107a75760405162461bcd60e51b8152602060048201526011602482015270139195081c1c9a5e99481b9bdd081cd95d607a1b6044820152606401610356565b6003546000906107e960025460408051446020808301919091524282840152606080830194909452825180830390940184526080909101909152815191012090565b6107f39190610f57565b905060006003828154811061080a5761080a610f12565b600091825260209182902001546040516001600160a01b0390911680825292507f1d4c260f1824cd028e6c9e6e31c3a0b94f2513e7a641113ec759d382f9bdd5a1910160405180910390a16006546000546007546040516323b872dd60e01b81526001600160a01b039283166004820152848316602482015260448101919091529116906323b872dd90606401600060405180830381600087803b1580156108b157600080fd5b505af11580156108c5573d6000803e3d6000fd5b505050506108d1610d53565b6108dd60036000610db3565b6108e960026000610db3565b5050600680546001600160a01b031916905560006007819055600855565b6000546001600160a01b031633146109315760405162461bcd60e51b815260040161035690610eb0565b6000471161097a5760405162461bcd60e51b81526020600482015260166024820152754e6f2062616c616e636520746f20776974686472617760501b6044820152606401610356565b6000805460405147926001600160a01b039092169183156108fc02918491818181858888f193505050501580156109b5573d6000803e3d6000fd5b506040518181527f39f8b889424a1684bd36857c25ab79691ed71adf60bbeca32820cb4de3c5884c9060200161062a565b60045460ff16610a385760405162461bcd60e51b815260206004820152601960248201527f526166666c65206973206e6f74207965742073746172746564000000000000006044820152606401610356565b80600554610a469190610f79565b3414610a8b5760405162461bcd60e51b8152602060048201526014602482015273125b98dbdc9958dd08185b5bdd5b9d081cd95b9d60621b6044820152606401610356565b3360009081526001602052604081208054839290610aaa908490610f96565b925050819055508060086000828254610ac39190610f96565b90915550610ad2905033610635565b610b1957600280546001810182556000919091527f405787fa12a823e0f2b7631cc41b3ba8828b3321ca811111fa75cd3aa3bb5ace0180546001600160a01b031916331790555b60005b81811015610b7857600380546001810182556000919091527fc2575a0e9e593c00f959f8c92f12db2869c3395a3b0502d05e2516446f71f85b0180546001600160a01b0319163317905580610b7081610f3e565b915050610b1c565b506040513381527f896131ca629c91d572fa56a5496788038dae3a7dc3cc6686af073c4e13efd3099060200161062a565b60606002805480602002602001604051908101604052809291908181526020018280548015610c0157602002820191906000526020600020905b81546001600160a01b03168152600190910190602001808311610be3575b5050505050905090565b6000546001600160a01b03163314610c355760405162461bcd60e51b815260040161035690610eb0565b610c4160036000610db3565b610c4d60026000610db3565b6004805460ff19169055600680546001600160a01b0319169055600060078190556005819055600855610c7e610d53565b565b6000546001600160a01b03163314610caa5760405162461bcd60e51b815260040161035690610eb0565b60045460ff16610cf45760405162461bcd60e51b8152602060048201526015602482015274149859999b19481a5cc81b9bdd081cdd185c9d1959605a1b6044820152606401610356565b6004805460ff191690556040517f502fd88d3ee98597d4546d25e71901684f153dccc5308b79f0f9ad3c660537a690600090a1565b60028181548110610d3957600080fd5b6000918252602090912001546001600160a01b0316905081565b60005b600254811015610db05760006001600060028481548110610d7957610d79610f12565b60009182526020808320909101546001600160a01b0316835282019290925260400190205580610da881610f3e565b915050610d56565b50565b5080546000825590600052602060002090810190610db091905b80821115610de15760008155600101610dcd565b5090565b6001600160a01b0381168114610db057600080fd5b60008060408385031215610e0d57600080fd5b8235610e1881610de5565b946020939093013593505050565b600060208284031215610e3857600080fd5b5035919050565b600060208284031215610e5157600080fd5b8135610e5c81610de5565b9392505050565b6020808252825182820181905260009190848201906040850190845b81811015610ea45783516001600160a01b031683529284019291840191600101610e7f565b50909695505050505050565b60208082526025908201527f4f6e6c7920746865206f776e65722063616e2063616c6c20746869732066756e60408201526431ba34b7b760d91b606082015260800190565b600060208284031215610f0757600080fd5b8151610e5c81610de5565b634e487b7160e01b600052603260045260246000fd5b634e487b7160e01b600052601160045260246000fd5b600060018201610f5057610f50610f28565b5060010190565b600082610f7457634e487b7160e01b600052601260045260246000fd5b500690565b8082028115828204841417610f9057610f90610f28565b92915050565b80820180821115610f9057610f90610f2856fea2646970667358221220ab83167ae9e84dc9beaea9d6e2270ac54824988719f1e575eeff8a0a5d6a28e864736f6c63430008150033",
    "linkReferences": {}
  },
  "methodIdentifiers": {
    "buyEntry(uint256)": "767d59af",
    "changeEntryCost(uint256)": "0513ec68",
    "endRaffle()": "ee095c0e",
    "entryCost()": "ae42ced6",
    "entryCount(address)": "41dd1ef8",
    "getBalance()": "12065fe0",
    "getPlayers()": "8b5b9ccc",
    "isPlayer(address)": "09c95e10",
    "nftAddress()": "5bf8633a",
    "nftId()": "c6bc5182",
    "owner()": "8da5cb5b",
    "players(uint256)": "f71d96cb",
    "raffleStatus()": "ccfa213e",
    "resetsContract()": "d4ac1ef6",
    "selectWinner()": "33a99e04",
    "startRaffle(address,uint256)": "03854651",
    "totalEntries()": "7fef036e",
    "withdrawBalance()": "5fd8c710"
  },
  "id": 44
}